{"txid": "f7b5fe3897f198aba9f9fb4f1d946601c0abc9e54c735213380aa12f5869d055", "version": 1, "locktime": 0, "vin": [{"coinbase": "0429fa021b0119", "sequence": 4294967295, "n": 0}], "vout": [{"value": "50.00000000", "n": 0, "scriptPubKey": {"hex": "410424b4a72e96a355187c10c3decc5848771b356d178249e1754430e004de6ac5c66c3e350a336d09d5c1e15a397a667f5a77d9941ce402c5c173b241e1221d1072ac", "asm": "0424b4a72e96a355187c10c3decc5848771b356d178249e1754430e004de6ac5c66c3e350a336d09d5c1e15a397a667f5a77d9941ce402c5c173b241e1221d1072 OP_CHECKSIG", "addresses": ["186rC6R8tErTqKbrHHr6EZL5jrr7ZMG8Hr"], "type": "pubkeyhash"}, "spentTxId": "5f247d8265be96eb494cca1988aa6cbf21b89f8b9fa1c8c3aa0bbb3613b85865", "spentIndex": 7, "spentHeight": 108963}], "blockhash": "000000000002d0b2dc0ab66804e555f8920ee274a5c9af2b425cbf65e86e0078", "blockheight": 105532, "confirmations": 464586, "time": 1296501712, "blocktime": 1296501712, "isCoinBase": true, "valueOut": 50, "size": 134, "rawtx": "01000000010000000000000000000000000000000000000000000000000000000000000000ffffffff070429fa021b0119ffffffff0100f2052a0100000043410424b4a72e96a355187c10c3decc5848771b356d178249e1754430e004de6ac5c66c3e350a336d09d5c1e15a397a667f5a77d9941ce402c5c173b241e1221d1072ac00000000"}