{"txid": "5ee73101dc61e3198faff852acc5ea653d573e0d41f3afda4e75186876dad442", "version": 1, "locktime": 0, "vin": [{"coinbase": "03408c051d4d696e656420627920416e74506f6f6c20626a3602fe853c205596064e2429000036499b03", "sequence": 4294967295, "n": 0}], "vout": [{"value": "25.36942689", "n": 0, "scriptPubKey": {"hex": "76a914dc463c5158bd902281cc8d3742b17c8065052b1788ac", "asm": "OP_DUP OP_HASH160 dc463c5158bd902281cc8d3742b17c8065052b17 OP_EQUALVERIFY OP_CHECKSIG", "addresses": ["1M5hoG1pCTDsPqZwG6WH25ziwYYaXNMLrU"], "type": "pubkeyhash"}, "spentTxId": "9fcf3363bd5c022c403cd32628cc6eb2f75b242312bc697bb059c118237c530f", "spentIndex": 17, "spentHeight": 363880}], "blockhash": "00000000000000000a1701b47ef44dd2abc9d3b4b9270d8717493220e086fdcc", "blockheight": 363584, "confirmations": 206585, "time": 1435895374, "blocktime": 1435895374, "isCoinBase": true, "valueOut": 25.36942689, "size": 127, "rawtx": "01000000010000000000000000000000000000000000000000000000000000000000000000ffffffff2a03408c051d4d696e656420627920416e74506f6f6c20626a3602fe853c205596064e2429000036499b03ffffffff0161ac3697000000001976a914dc463c5158bd902281cc8d3742b17c8065052b1788ac00000000"}