{"txid": "99d77404af102a0cafd904eb010746fed3a61a2dc7c3c118febe9e7cdad41a7a", "version": 1, "locktime": 0, "vin": [{"coinbase": "03c754070c2f5669614254432f4e59412f2cfabe6d6d0e31749a3b09d1cb1c17979c526437b2afc247f47f0dba604748ffc1af8421c5010000000000000010531af6010f5071f31abb10311f82007f", "sequence": 4294967295, "n": 0}], "vout": [{"value": "13.28000924", "n": 0, "scriptPubKey": {"hex": "76a914536ffa992491508dca0354e52f32a3a7a679a53a88ac", "asm": "OP_DUP OP_HASH160 536ffa992491508dca0354e52f32a3a7a679a53a OP_EQUALVERIFY OP_CHECKSIG", "addresses": ["18cBEMRxXHqzWWCxZNtU91F5sbUNKhL5PX"], "type": "pubkeyhash"}, "spentTxId": "1431e7195312768045d2810ee973df2c929484faa138731c31edad4c9b122d60", "spentIndex": 0, "spentHeight": 480594}, {"value": "0.00000000", "n": 1, "scriptPubKey": {"hex": "6a24aa21a9ed986db7724e1261def5eb04f0a987841ead75edab30a8aca0c2039cd89036fb80", "asm": "OP_RETURN aa21a9ed986db7724e1261def5eb04f0a987841ead75edab30a8aca0c2039cd89036fb80"}, "spentTxId": null, "spentIndex": null, "spentHeight": null}], "blockhash": "0000000000000000002653b50154f55bf09fdfdc269c14830ae198f3cd666ca7", "blockheight": 480455, "confirmations": 89663, "time": 1502684719, "blocktime": 1502684719, "isCoinBase": true, "valueOut": 13.28000924, "size": 211, "rawtx": "01000000010000000000000000000000000000000000000000000000000000000000000000ffffffff4f03c754070c2f5669614254432f4e59412f2cfabe6d6d0e31749a3b09d1cb1c17979c526437b2afc247f47f0dba604748ffc1af8421c5010000000000000010531af6010f5071f31abb10311f82007fffffffff029caf274f000000001976a914536ffa992491508dca0354e52f32a3a7a679a53a88ac0000000000000000266a24aa21a9ed986db7724e1261def5eb04f0a987841ead75edab30a8aca0c2039cd89036fb8000000000"}