{"txid": "5ef5d5cc50c257faff9177beb940b82d695e1ca9f8f0884a5c564bb0b870c70f", "version": 1, "locktime": 0, "vin": [{"coinbase": "03125c0704d5c6a3592f426978696e2f426974636f696e456e74657270726973652f4e59412ffabe6d6d41fb2cab2d022c7961c3ee350a21694ba6512901f9f6391eecac368bbce28d9201000000000000001b700f04740400c000000000", "sequence": 4294967295, "n": 0}], "vout": [{"value": "16.48385238", "n": 0, "scriptPubKey": {"hex": "76a914cef3550ff9e637ddd120717d43fc21f8a563caf888ac", "asm": "OP_DUP OP_HASH160 cef3550ff9e637ddd120717d43fc21f8a563caf8 OP_EQUALVERIFY OP_CHECKSIG", "addresses": ["1KsFhYKLs8qb1GHqrPxHoywNQpet2CtP9t"], "type": "pubkeyhash"}, "spentTxId": "2415a4b8f3440e65ef9b468329a55e5166345ff6c47602cb4566c0c819566cb8", "spentIndex": 0, "spentHeight": 482423}, {"value": "0.00000000", "n": 1, "scriptPubKey": {"hex": "6a24aa21a9ed911ea14e9f793d73fd74196dc507b9a56fb6afc3438b7a090872f47728dd856f", "asm": "OP_RETURN aa21a9ed911ea14e9f793d73fd74196dc507b9a56fb6afc3438b7a090872f47728dd856f"}, "spentTxId": null, "spentIndex": null, "spentHeight": null}], "blockhash": "00000000000000000125887e5eae3d294cb9d27e3e35759be57bc3f01a82fc41", "blockheight": 482322, "confirmations": 87796, "time": 1503905500, "blocktime": 1503905500, "isCoinBase": true, "valueOut": 16.48385238, "size": 226, "rawtx": "01000000010000000000000000000000000000000000000000000000000000000000000000ffffffff5e03125c0704d5c6a3592f426978696e2f426974636f696e456e74657270726973652f4e59412ffabe6d6d41fb2cab2d022c7961c3ee350a21694ba6512901f9f6391eecac368bbce28d9201000000000000001b700f04740400c000000000ffffffff02d65c4062000000001976a914cef3550ff9e637ddd120717d43fc21f8a563caf888ac0000000000000000266a24aa21a9ed911ea14e9f793d73fd74196dc507b9a56fb6afc3438b7a090872f47728dd856f00000000"}