{"txid": "13860371ea088b866d8e41df54834f252d1f3b7e718208d05171a010b75cf10c", "version": 1, "locktime": 0, "vin": [{"coinbase": "045dee091a03e23b01", "sequence": 4294967295, "n": 0}], "vout": [{"value": "50.00200000", "n": 0, "scriptPubKey": {"hex": "41047318be77667acb7c4757351eee481b768f9be91bdec61d91fdb5616045d9136d538309b5e88bfbe94b99a9153f2332eb5873d63469cf3f5dc17fb3398ac89c63ac", "asm": "047318be77667acb7c4757351eee481b768f9be91bdec61d91fdb5616045d9136d538309b5e88bfbe94b99a9153f2332eb5873d63469cf3f5dc17fb3398ac89c63 OP_CHECKSIG", "addresses": ["1D2fV6tskmNt8MrrarqcBEcnzDRVTudsN7"], "type": "pubkeyhash"}, "spentTxId": "f59b7d7afa9b5a8453d66a43483c7ff655e5d0aa625ad269686fd133b525e48f", "spentIndex": 2, "spentHeight": 149336}], "blockhash": "00000000000007f3a8ebc33ab332932a7fa1acc20dc8a2c0396d4be15120d01b", "blockheight": 149165, "confirmations": 420999, "time": 1318544981, "blocktime": 1318544981, "isCoinBase": true, "valueOut": 50.002, "size": 136, "rawtx": "01000000010000000000000000000000000000000000000000000000000000000000000000ffffffff09045dee091a03e23b01ffffffff0140ff082a010000004341047318be77667acb7c4757351eee481b768f9be91bdec61d91fdb5616045d9136d538309b5e88bfbe94b99a9153f2332eb5873d63469cf3f5dc17fb3398ac89c63ac00000000"}