{"txid": "4a959ed28ff83b69028f767498be3a0311d89bfcc03e60f13bf3e76812f9ccc9", "version": 1, "locktime": 0, "vin": [{"coinbase": "0453ec131c0153", "sequence": 4294967295, "n": 0}], "vout": [{"value": "50.00000000", "n": 0, "scriptPubKey": {"hex": "410402cb426bc5b7525c00c1d9ab8cd01759e1334c585692359f284ef0a81b53bf13f924422664ad0e68428070f474962ed629000ca8ede67a5e0f8e588c84293502ac", "asm": "0402cb426bc5b7525c00c1d9ab8cd01759e1334c585692359f284ef0a81b53bf13f924422664ad0e68428070f474962ed629000ca8ede67a5e0f8e588c84293502 OP_CHECKSIG", "addresses": ["16sGmenQdXLa8mHWfwapQ9yLKuyEWCmdN1"], "type": "pubkeyhash"}, "spentTxId": "491745d93b05675c27e2ee5515ca0b24b699bbdd65955dbd1fb280a18adf9e12", "spentIndex": 6, "spentHeight": 85225}], "blockhash": "0000000012f304727eccdeace200708b5ee240566ef7e86c54f0c3b84c359eef", "blockheight": 54783, "confirmations": 515409, "time": 1273185323, "blocktime": 1273185323, "isCoinBase": true, "valueOut": 50, "size": 134, "rawtx": "01000000010000000000000000000000000000000000000000000000000000000000000000ffffffff070453ec131c0153ffffffff0100f2052a0100000043410402cb426bc5b7525c00c1d9ab8cd01759e1334c585692359f284ef0a81b53bf13f924422664ad0e68428070f474962ed629000ca8ede67a5e0f8e588c84293502ac00000000"}