{"txid": "17f4eba02b7768b1b0d5fd673aaa08d9841c0ca3a033d68b38ea1b06352155a2", "version": 1, "locktime": 0, "vin": [{"coinbase": "03a7da052f4249503130302f04dc5d48560902180ca8736c0c0900072f425443432f20", "sequence": 0, "n": 0}], "vout": [{"value": "25.05611771", "n": 0, "scriptPubKey": {"hex": "76a9142c30a6aaac6d96687291475d7d52f4b469f665a688ac", "asm": "OP_DUP OP_HASH160 2c30a6aaac6d96687291475d7d52f4b469f665a6 OP_EQUALVERIFY OP_CHECKSIG", "addresses": ["152f1muMCNa7goXYhYAQC61hxEgGacmncB"], "type": "pubkeyhash"}, "spentTxId": "2d4d3488828981d9c18b4cbc37e5a0ae119b2a76a61fd752b8350a29624ea978", "spentIndex": 106, "spentHeight": 383985}], "blockhash": "00000000000000000899a9b4da9d55a6ceb4cd855806b6b3def92d75f4e59d0c", "blockheight": 383655, "confirmations": 186537, "time": 1447583195, "blocktime": 1447583195, "isCoinBase": true, "valueOut": 25.05611771, "size": 120, "rawtx": "01000000010000000000000000000000000000000000000000000000000000000000000000ffffffff2303a7da052f4249503130302f04dc5d48560902180ca8736c0c0900072f425443432f200000000001fb995895000000001976a9142c30a6aaac6d96687291475d7d52f4b469f665a688ac00000000"}