{"txid": "e22a8e476d588f065bd2e5229e0cb0f6b3e15e8a704a57660d004e2e923e62be", "version": 1, "locktime": 0, "vin": [{"coinbase": "03d5c303000429a4001a0400000000522cfabe6d6d00000000000000c24500002f600048692066726f6d2035304254432e636f6d203133ac1eeeed88", "sequence": 4294967295, "n": 0}], "vout": [{"value": "25.19245114", "n": 0, "scriptPubKey": {"hex": "76a914bfd9c318852ca57a563786e67bb4d0a20b1d8f6788ac", "asm": "OP_DUP OP_HASH160 bfd9c318852ca57a563786e67bb4d0a20b1d8f67 OP_EQUALVERIFY OP_CHECKSIG", "addresses": ["1JVQw1siukrxGFTZykXFDtcf6SExJVuTVE"], "type": "pubkeyhash"}, "spentTxId": "767be04dc7a9d6c36f034d1cfc88f4e25de6bb2c6357478112a73095e210a4eb", "spentIndex": 0, "spentHeight": 246861}], "blockhash": "00000000000000128ff9fbce7cb5f81730816c9aa3ab936f7479eac43256abc4", "blockheight": 246741, "confirmations": 323428, "time": 1373915314, "blocktime": 1373915314, "isCoinBase": true, "valueOut": 25.19245114, "size": 145, "rawtx": "01000000010000000000000000000000000000000000000000000000000000000000000000ffffffff3c03d5c303000429a4001a0400000000522cfabe6d6d00000000000000c24500002f600048692066726f6d2035304254432e636f6d203133ac1eeeed88ffffffff013aa12896000000001976a914bfd9c318852ca57a563786e67bb4d0a20b1d8f6788ac00000000"}