{"txid": "2532f0b4bfd5723fdc5d043d22804e9957c5b4e15af1606fb952554a73288378", "version": 1, "locktime": 0, "vin": [{"coinbase": "04e5e1081a02b301", "sequence": 4294967295, "n": 0}], "vout": [{"value": "50.21250000", "n": 0, "scriptPubKey": {"hex": "41042f5ddd0b4489e6d38ae69232ea3f5006d5996057c6eec44402dc8a338028d47cddc6c25f7ba68e485580957e920d3c0d544baae7968783a3138ac0dc93b07d90ac", "asm": "042f5ddd0b4489e6d38ae69232ea3f5006d5996057c6eec44402dc8a338028d47cddc6c25f7ba68e485580957e920d3c0d544baae7968783a3138ac0dc93b07d90 OP_CHECKSIG", "addresses": ["16yQbm3h1CXzG889DER9ArHnb6hCV8QKBj"], "type": "pubkeyhash"}, "spentTxId": "1b62c0212cf4a8859ea111c2e9e339bb8ac43e672f66bfe367a77edb0b4bce97", "spentIndex": 0, "spentHeight": 139832}], "blockhash": "00000000000004c08814a7102847b1f1178075bbaedd8b63b297958f600718ef", "blockheight": 139729, "confirmations": 430435, "time": 1312555034, "blocktime": 1312555034, "isCoinBase": true, "valueOut": 50.2125, "size": 135, "rawtx": "01000000010000000000000000000000000000000000000000000000000000000000000000ffffffff0804e5e1081a02b301ffffffff01d0314a2b010000004341042f5ddd0b4489e6d38ae69232ea3f5006d5996057c6eec44402dc8a338028d47cddc6c25f7ba68e485580957e920d3c0d544baae7968783a3138ac0dc93b07d90ac00000000"}