{"txid": "3a7ad0d5d48f776019556d2abbb1fb3c34b27c353d94dedeebc79b816568b174", "version": 1, "locktime": 0, "vin": [{"coinbase": "031c4b051d4d696e656420627920416e74506f6f6c2073633100f00b482054fe158e770200009aa60900", "sequence": 4294967295, "n": 0}], "vout": [{"value": "25.16574228", "n": 0, "scriptPubKey": {"hex": "76a9143d7f5ca4b06df0287aa865cb4abd86569fe7462188ac", "asm": "OP_DUP OP_HASH160 3d7f5ca4b06df0287aa865cb4abd86569fe74621 OP_EQUALVERIFY OP_CHECKSIG", "addresses": ["16cAnxj2XRngJ5d1BaZdPJUYWddGr9GZaB"], "type": "pubkeyhash"}, "spentTxId": "7af6fdc830cfcdb644d39d1cbc305fb63515f37eabcf819c4bab5da440cf3246", "spentIndex": 11, "spentHeight": 347084}], "blockhash": "000000000000000015e4ab6d8c33e8f2eb8b5547a3012ec9a643c18d62207a7e", "blockheight": 346908, "confirmations": 223256, "time": 1425937806, "blocktime": 1425937806, "isCoinBase": true, "valueOut": 25.16574228, "size": 127, "rawtx": "01000000010000000000000000000000000000000000000000000000000000000000000000ffffffff2a031c4b051d4d696e656420627920416e74506f6f6c2073633100f00b482054fe158e770200009aa60900ffffffff0114e0ff95000000001976a9143d7f5ca4b06df0287aa865cb4abd86569fe7462188ac00000000"}