{"txid": "fd37d1263ed7fa8f1dae3cfe120d6fa54943b9217260ecc7a697cb5bf45fd8df", "version": 1, "locktime": 0, "vin": [{"coinbase": "03005503062f503253482f04a7db055108f800164f02040000122f6f7a636f696e4065757374726174756d2f", "sequence": 0, "n": 0}], "vout": [{"value": "25.55270000", "n": 0, "scriptPubKey": {"hex": "76a914ea132286328cfc819457b9dec386c4b5c84faa5c88ac", "asm": "OP_DUP OP_HASH160 ea132286328cfc819457b9dec386c4b5c84faa5c OP_EQUALVERIFY OP_CHECKSIG", "addresses": ["1NLg3QJMsMQGM5KEUaEu5ADDmKQSLHwmyh"], "type": "pubkeyhash"}, "spentTxId": "4e35de9f2f25ca00a159048968e9e4e6383367fda2dd776a818d23932a31983c", "spentIndex": 0, "spentHeight": 218470}], "blockhash": "00000000000002049448e3cf9057b3cae146b53983065aa66a232c416c62fedd", "blockheight": 218368, "confirmations": 351801, "time": 1359338407, "blocktime": 1359338407, "isCoinBase": true, "valueOut": 25.5527, "size": 129, "rawtx": "01000000010000000000000000000000000000000000000000000000000000000000000000ffffffff2c03005503062f503253482f04a7db055108f800164f02040000122f6f7a636f696e4065757374726174756d2f000000000170534e98000000001976a914ea132286328cfc819457b9dec386c4b5c84faa5c88ac00000000"}