{"txid": "512d58a97c9e103b8c18169eea26b740df15db099348bec4cd8fc1e1997b060b", "version": 1, "locktime": 0, "vin": [{"coinbase": "04ffff001d021203", "sequence": 4294967295, "n": 0}], "vout": [{"value": "50.00000000", "n": 0, "scriptPubKey": {"hex": "410429ed980338f4c2d518f2336d5d58128571088793736a93310b1ff80477c3cf810fd6484e126d923a2d82125361ea1ac4e66ea97392789cdf9bd195bda25a5257ac", "asm": "0429ed980338f4c2d518f2336d5d58128571088793736a93310b1ff80477c3cf810fd6484e126d923a2d82125361ea1ac4e66ea97392789cdf9bd195bda25a5257 OP_CHECKSIG", "addresses": ["1HfZZeGpksm2GxxJfyRg2R4dCfbszeKaJM"], "type": "pubkeyhash"}, "spentTxId": "6029e51c4706c8b12bfdc9bab2311cc99d7fd5ccca3701bff4af2935c4a89215", "spentIndex": 2, "spentHeight": 26402}], "blockhash": "00000000051c41d4047c9293d6a5a33d8ad39cc2e1ff5654e1e15208e4122e18", "blockheight": 26082, "confirmations": 544082, "time": 1256790584, "blocktime": 1256790584, "isCoinBase": true, "valueOut": 50, "size": 135, "rawtx": "01000000010000000000000000000000000000000000000000000000000000000000000000ffffffff0804ffff001d021203ffffffff0100f2052a0100000043410429ed980338f4c2d518f2336d5d58128571088793736a93310b1ff80477c3cf810fd6484e126d923a2d82125361ea1ac4e66ea97392789cdf9bd195bda25a5257ac00000000"}