{"txid": "3b65d06e4d4f526e2b8d2518bd40677b62dfed4e47b8ddfcca584641457a6328", "version": 1, "locktime": 0, "vin": [{"coinbase": "032b8803062f503253482f04c9ff6b510870000f421a0400000c32646538662f736c7573682f", "sequence": 0, "n": 0}], "vout": [{"value": "25.65650000", "n": 0, "scriptPubKey": {"hex": "76a914e285a29e0704004d4e95dbb7c57a98563d9fb2eb88ac", "asm": "OP_DUP OP_HASH160 e285a29e0704004d4e95dbb7c57a98563d9fb2eb OP_EQUALVERIFY OP_CHECKSIG", "addresses": ["1MejoVXRvsmwyDpTpkw3VJ82NsjjT8SyEw"], "type": "pubkeyhash"}, "spentTxId": "ff95ceb4bc47cd1ee3d0ffa261766a53e6e2162da6fdf672f571737ce344e857", "spentIndex": 0, "spentHeight": 232028}], "blockhash": "000000000000003721e80bcc04f105505970d319c3f89ca05f163c5eb3c75313", "blockheight": 231467, "confirmations": 338725, "time": 1366032328, "blocktime": 1366032328, "isCoinBase": true, "valueOut": 25.6565, "size": 123, "rawtx": "01000000010000000000000000000000000000000000000000000000000000000000000000ffffffff26032b8803062f503253482f04c9ff6b510870000f421a0400000c32646538662f736c7573682f000000000150b6ec98000000001976a914e285a29e0704004d4e95dbb7c57a98563d9fb2eb88ac00000000"}