{"txid": "af7d874c1a5580170c2c4daf952ded1b9ddd8c6a54661928acfeb287260f3ec8", "version": 1, "locktime": 0, "vin": [{"coinbase": "04a58e091a02593e", "sequence": 4294967295, "n": 0}], "vout": [{"value": "50.00850000", "n": 0, "scriptPubKey": {"hex": "41042078c0d8ad87ec2ea707cdd3f3bb77f5ae69869adaacf864f96fd4e183a312b34a6380ff6f4f7f6616270dd37783afdd9b8a74fe373a58d7b92f4784f514f88dac", "asm": "042078c0d8ad87ec2ea707cdd3f3bb77f5ae69869adaacf864f96fd4e183a312b34a6380ff6f4f7f6616270dd37783afdd9b8a74fe373a58d7b92f4784f514f88d OP_CHECKSIG", "addresses": ["18SFfYnw4BV16bu9Ngu5aFPDibYec6Pq44"], "type": "pubkeyhash"}, "spentTxId": "9efa20190ae314bc6c153ebaadff13bfbef82b0d70812ac7ec3c2b18befc0878", "spentIndex": 1, "spentHeight": 145517}], "blockhash": "00000000000005406892ab2f5ba506abcf80e82c073bcaa27fad0d8d4fb765cc", "blockheight": 145388, "confirmations": 424730, "time": 1316051036, "blocktime": 1316051036, "isCoinBase": true, "valueOut": 50.0085, "size": 135, "rawtx": "01000000010000000000000000000000000000000000000000000000000000000000000000ffffffff0804a58e091a02593effffffff0150ea122a010000004341042078c0d8ad87ec2ea707cdd3f3bb77f5ae69869adaacf864f96fd4e183a312b34a6380ff6f4f7f6616270dd37783afdd9b8a74fe373a58d7b92f4784f514f88dac00000000"}