{"txid": "419f2b134cc0a9673dd8f7fd2ffcb94017521d6682a7189d71c0fb36e401924f", "version": 1, "locktime": 0, "vin": [{"coinbase": "038b0506046083a35609027000ccf880070a00072f425443432f20", "sequence": 0, "n": 0}], "vout": [{"value": "25.23147800", "n": 0, "scriptPubKey": {"hex": "76a9142c30a6aaac6d96687291475d7d52f4b469f665a688ac", "asm": "OP_DUP OP_HASH160 2c30a6aaac6d96687291475d7d52f4b469f665a6 OP_EQUALVERIFY OP_CHECKSIG", "addresses": ["152f1muMCNa7goXYhYAQC61hxEgGacmncB"], "type": "pubkeyhash"}, "spentTxId": "d034953f7221182eb091d43d910a70c30ef6e423936b39c7673425529925ccdf", "spentIndex": 16, "spentHeight": 397002}], "blockhash": "000000000000000006f31cfeba4ce61cdb417d47535588f6802866e9afdeecef", "blockheight": 394635, "confirmations": 175534, "time": 1453556573, "blocktime": 1453556573, "isCoinBase": true, "valueOut": 25.231478, "size": 112, "rawtx": "01000000010000000000000000000000000000000000000000000000000000000000000000ffffffff1b038b0506046083a35609027000ccf880070a00072f425443432f200000000001182e6496000000001976a9142c30a6aaac6d96687291475d7d52f4b469f665a688ac00000000"}