{"txid": "3f32055841c59a31c3931568c628ba00d60b6f1c22508674b19777f4d5634244", "version": 1, "locktime": 0, "vin": [{"coinbase": "042a8b091b0126", "sequence": 4294967295, "n": 0}], "vout": [{"value": "50.00000000", "n": 0, "scriptPubKey": {"hex": "4104fafdc445f261edf1707a92799fb9cadeddc7d979a0e68c3a1c497babdc366f67c8928836ca767611b293e200fbd5c4163f531a8f7b4a71d8a010903e755e2749ac", "asm": "04fafdc445f261edf1707a92799fb9cadeddc7d979a0e68c3a1c497babdc366f67c8928836ca767611b293e200fbd5c4163f531a8f7b4a71d8a010903e755e2749 OP_CHECKSIG", "addresses": ["1A4bQVEwL2niBwtP8my27dPbKD1s4ph95S"], "type": "pubkeyhash"}, "spentTxId": "93de422c87f7fc2c79664cda3213dc5d1e5caa2c630ba4e0edd8b96177e1760f", "spentIndex": 1, "spentHeight": 93520}], "blockhash": "0000000000019b08b6c0351e9895a7e33abd1b87ba88e61a2aadc8199814460a", "blockheight": 93399, "confirmations": 476719, "time": 1290503975, "blocktime": 1290503975, "isCoinBase": true, "valueOut": 50, "size": 134, "rawtx": "01000000010000000000000000000000000000000000000000000000000000000000000000ffffffff07042a8b091b0126ffffffff0100f2052a01000000434104fafdc445f261edf1707a92799fb9cadeddc7d979a0e68c3a1c497babdc366f67c8928836ca767611b293e200fbd5c4163f531a8f7b4a71d8a010903e755e2749ac00000000"}