{"txid": "e31622b383b7e867eedd309025512c478150c7f57a3066846a444baf5996553b", "version": 1, "locktime": 0, "vin": [{"coinbase": "04ee8d031b0108", "sequence": 4294967295, "n": 0}], "vout": [{"value": "50.00000000", "n": 0, "scriptPubKey": {"hex": "41044903515889461ff5524e9d8b269735debf8f323d0aa1b1800d1c35c403f4f7a238cccf3e502456c919e8d3813b85fc0eb681bee09a5919121a60f5f772b919c1ac", "asm": "044903515889461ff5524e9d8b269735debf8f323d0aa1b1800d1c35c403f4f7a238cccf3e502456c919e8d3813b85fc0eb681bee09a5919121a60f5f772b919c1 OP_CHECKSIG", "addresses": ["1B7KkopoED7TxJY3mTEiLvzBHYKxhCw5bR"], "type": "pubkeyhash"}, "spentTxId": "c227a29a5170707823463b45f4f842b2fcd4fee1afa73e78f387a3dc746743da", "spentIndex": 2, "spentHeight": 103966}], "blockhash": "00000000000209645d9ee50e96980f68887a5306f27b95b61e5f96d47b0b6186", "blockheight": 103615, "confirmations": 466503, "time": 1295513486, "blocktime": 1295513486, "isCoinBase": true, "valueOut": 50, "size": 134, "rawtx": "01000000010000000000000000000000000000000000000000000000000000000000000000ffffffff0704ee8d031b0108ffffffff0100f2052a010000004341044903515889461ff5524e9d8b269735debf8f323d0aa1b1800d1c35c403f4f7a238cccf3e502456c919e8d3813b85fc0eb681bee09a5919121a60f5f772b919c1ac00000000"}