{"txid": "fa74b526d9b403bc694a1965fce2b11ddf0d679e5986362f135a29b70f70b1b8", "version": 1, "locktime": 0, "vin": [{"coinbase": "040b290c1a02af6f", "sequence": 4294967295, "n": 0}], "vout": [{"value": "50.02942752", "n": 0, "scriptPubKey": {"hex": "4104f41d150765a1aeeeb78bddbdd4810ddef3bc6c07b9b82963e864d2c129426e47f9f0f4d3dc3a169a916b33dedac38018bd0272b33acb4feb579ed0d464e3c8acac", "asm": "04f41d150765a1aeeeb78bddbdd4810ddef3bc6c07b9b82963e864d2c129426e47f9f0f4d3dc3a169a916b33dedac38018bd0272b33acb4feb579ed0d464e3c8ac OP_CHECKSIG", "addresses": ["1PRfiV27jrbpQow7tr2vDX9bGxb23irgZC"], "type": "pubkeyhash"}, "spentTxId": "aecc01f8233823e15d0248469c58906ed0142554b9afe812b1092a42778af9a3", "spentIndex": 0, "spentHeight": 167590}], "blockhash": "000000000000075b9b2fd25d3e5818521acc9722db160d2e0ae1ba8651c51f4d", "blockheight": 167222, "confirmations": 402896, "time": 1329509087, "blocktime": 1329509087, "isCoinBase": true, "valueOut": 50.02942752, "size": 135, "rawtx": "01000000010000000000000000000000000000000000000000000000000000000000000000ffffffff08040b290c1a02af6fffffffff0120d9322a01000000434104f41d150765a1aeeeb78bddbdd4810ddef3bc6c07b9b82963e864d2c129426e47f9f0f4d3dc3a169a916b33dedac38018bd0272b33acb4feb579ed0d464e3c8acac00000000"}