{"txid": "1c07158ea814192b89cbe488d1851fc5243f4f8d40922bac677810cffc298738", "version": 1, "locktime": 0, "vin": [{"coinbase": "031c7106162f5669614254432f48656c6c6f2c20576f726c64212f2cfabe6d6d2e7e39e9308cf239252fed35525dd43320c981e1b1c352b7930332fc2ce42f9901000000000000000cd604820f175d42fd05d10200", "sequence": 4294967295, "n": 0}], "vout": [{"value": "12.76701334", "n": 0, "scriptPubKey": {"hex": "76a914536ffa992491508dca0354e52f32a3a7a679a53a88ac", "asm": "OP_DUP OP_HASH160 536ffa992491508dca0354e52f32a3a7a679a53a OP_EQUALVERIFY OP_CHECKSIG", "addresses": ["18cBEMRxXHqzWWCxZNtU91F5sbUNKhL5PX"], "type": "pubkeyhash"}, "spentTxId": "bf2aaf309d1b488ee763fda165fa781ca7e326b8585cce43ccfe1bd4c4214919", "spentIndex": 1, "spentHeight": 422293}], "blockhash": "00000000000000000309a6d5c4afa5a14a9dfe180e508ba95120576871da8313", "blockheight": 422172, "confirmations": 148020, "time": 1469425625, "blocktime": 1469425625, "isCoinBase": true, "valueOut": 12.76701334, "size": 170, "rawtx": "01000000010000000000000000000000000000000000000000000000000000000000000000ffffffff55031c7106162f5669614254432f48656c6c6f2c20576f726c64212f2cfabe6d6d2e7e39e9308cf239252fed35525dd43320c981e1b1c352b7930332fc2ce42f9901000000000000000cd604820f175d42fd05d10200ffffffff0196ea184c000000001976a914536ffa992491508dca0354e52f32a3a7a679a53a88ac00000000"}