{"txid": "5764fc1750046adb8e5cfb848f26277f84ebdc16e8f0aa21f9746fafb84f9819", "version": 1, "locktime": 0, "vin": [{"coinbase": "049820691b0102", "sequence": 4294967295, "n": 0}], "vout": [{"value": "50.00000000", "n": 0, "scriptPubKey": {"hex": "41046be17407ed387f079ffe80be996a004bfccb40a34b234162a311a39d5b1abb0554047679dc39e3181c4b3dc03dbf003b37ec72620d3d30c0106c8c76e0b4f289ac", "asm": "046be17407ed387f079ffe80be996a004bfccb40a34b234162a311a39d5b1abb0554047679dc39e3181c4b3dc03dbf003b37ec72620d3d30c0106c8c76e0b4f289 OP_CHECKSIG", "addresses": ["12rcTQucKvm9b993AcS7SBhRGKUUtJMDxe"], "type": "pubkeyhash"}, "spentTxId": "15c86310043802156c85f16a2498896526a859801d13e40600703d4ac66c0a6a", "spentIndex": 0, "spentHeight": 243857}], "blockhash": "00000000005fdfd810a7f8200b253e9c1034d99be1827c2aa222745f3a5a9bce", "blockheight": 77984, "confirmations": 492180, "time": 1283584001, "blocktime": 1283584001, "isCoinBase": true, "valueOut": 50, "size": 134, "rawtx": "01000000010000000000000000000000000000000000000000000000000000000000000000ffffffff07049820691b0102ffffffff0100f2052a010000004341046be17407ed387f079ffe80be996a004bfccb40a34b234162a311a39d5b1abb0554047679dc39e3181c4b3dc03dbf003b37ec72620d3d30c0106c8c76e0b4f289ac00000000"}