{"txid": "12f2772c4f46b7c4eda41a29358ff2ec8cbccad68b129b09dd1d4f9c864b4b1e", "version": 1, "locktime": 0, "vin": [{"coinbase": "046f7f381c028801", "sequence": 4294967295, "n": 0}], "vout": [{"value": "50.00000000", "n": 0, "scriptPubKey": {"hex": "410487879e81ce1cc52b6d464c209e6cd0b267b906cb8283aa10c42b28814375a77c1a3b1eb3fa002de9cff90e62a44fe8d2262c7336bdb4bd03230e8c7d33da103aac", "asm": "0487879e81ce1cc52b6d464c209e6cd0b267b906cb8283aa10c42b28814375a77c1a3b1eb3fa002de9cff90e62a44fe8d2262c7336bdb4bd03230e8c7d33da103a OP_CHECKSIG", "addresses": ["1Li3j3K9dD28B3jS4xuh5cyK2tLhVgGB1E"], "type": "pubkeyhash"}, "spentTxId": null, "spentIndex": null, "spentHeight": null}], "blockhash": "000000003194947834f16fb9216e2d0747624beb2c7db247036b3f44b1e5521d", "blockheight": 46309, "confirmations": 523883, "time": 1269187071, "blocktime": 1269187071, "isCoinBase": true, "valueOut": 50, "size": 135, "rawtx": "01000000010000000000000000000000000000000000000000000000000000000000000000ffffffff08046f7f381c028801ffffffff0100f2052a0100000043410487879e81ce1cc52b6d464c209e6cd0b267b906cb8283aa10c42b28814375a77c1a3b1eb3fa002de9cff90e62a44fe8d2262c7336bdb4bd03230e8c7d33da103aac00000000"}