{"txid": "7940c0fcef285f3a863a82115b66c2bb37b4f2d8c365540b49a37554c3140c67", "version": 1, "locktime": 0, "vin": [{"coinbase": "042a8b091b0143", "sequence": 4294967295, "n": 0}], "vout": [{"value": "50.00000000", "n": 0, "scriptPubKey": {"hex": "410439e14997d6dd06934c0b0554fefa6b712024783591547132dbe580202bb178fab65bbf6c5fc9e9dea6e02c40d8d598425b9c96f7b280176c512092da35874eafac", "asm": "0439e14997d6dd06934c0b0554fefa6b712024783591547132dbe580202bb178fab65bbf6c5fc9e9dea6e02c40d8d598425b9c96f7b280176c512092da35874eaf OP_CHECKSIG", "addresses": ["1D8aPR5XbNkekSHUpFQLqXrCBLL9gD2nZg"], "type": "pubkeyhash"}, "spentTxId": "3c6124fbb81594c05cd82444ffd9c3f61ef15d516818fbfa0e92519d86acf495", "spentIndex": 18, "spentHeight": 95317}], "blockhash": "000000000003a78c98a4d6df8beab7d5171d6187d11aae1abaae23ddf214a56b", "blockheight": 93318, "confirmations": 476846, "time": 1290453382, "blocktime": 1290453382, "isCoinBase": true, "valueOut": 50, "size": 134, "rawtx": "01000000010000000000000000000000000000000000000000000000000000000000000000ffffffff07042a8b091b0143ffffffff0100f2052a0100000043410439e14997d6dd06934c0b0554fefa6b712024783591547132dbe580202bb178fab65bbf6c5fc9e9dea6e02c40d8d598425b9c96f7b280176c512092da35874eafac00000000"}