{"txid": "8c7d68fa872cfe4d6ac72352358c56df318bb76335e79b5426c1158d3e9f0551", "version": 1, "locktime": 0, "vin": [{"coinbase": "045c670f1c020502", "sequence": 4294967295, "n": 0}], "vout": [{"value": "50.00000000", "n": 0, "scriptPubKey": {"hex": "4104a83281b24d9b3f867ad9544247583305564af6042397c19c08bf689897feed044c94551e39b5f4ffa60990182c3c8ba19c58747748ad43bbe88203b497ea7733ac", "asm": "04a83281b24d9b3f867ad9544247583305564af6042397c19c08bf689897feed044c94551e39b5f4ffa60990182c3c8ba19c58747748ad43bbe88203b497ea7733 OP_CHECKSIG", "addresses": ["1KAwT5RgnWdn59gYo3pBGnpLpddKjM2asF"], "type": "pubkeyhash"}, "spentTxId": null, "spentIndex": null, "spentHeight": null}], "blockhash": "000000000b72981371805050c43ef53823b6784d5f54c6421e7bb9ffcde6c737", "blockheight": 59205, "confirmations": 510802, "time": 1275587299, "blocktime": 1275587299, "isCoinBase": true, "valueOut": 50, "size": 135, "rawtx": "01000000010000000000000000000000000000000000000000000000000000000000000000ffffffff08045c670f1c020502ffffffff0100f2052a01000000434104a83281b24d9b3f867ad9544247583305564af6042397c19c08bf689897feed044c94551e39b5f4ffa60990182c3c8ba19c58747748ad43bbe88203b497ea7733ac00000000"}