{"txid": "742fb6e94ca523eddb3f20daa47ef27084a122fba73dd7a037d0c317686a0ad2", "version": 1, "locktime": 0, "vin": [{"coinbase": "040c350b1a016d", "sequence": 4294967295, "n": 0}], "vout": [{"value": "50.03150010", "n": 0, "scriptPubKey": {"hex": "41044581b31010935ff0feb34405c3383782ea6ca7fef06ab3b9918f0df83d6f625fcb58d07168e0b196a0cc4c4b6800007df24ff6cb775cdb97f2c34b51af41a8e1ac", "asm": "044581b31010935ff0feb34405c3383782ea6ca7fef06ab3b9918f0df83d6f625fcb58d07168e0b196a0cc4c4b6800007df24ff6cb775cdb97f2c34b51af41a8e1 OP_CHECKSIG", "addresses": ["1D2PxThMGEWUHvD2vPb9EDXmouwSJe6A5v"], "type": "pubkeyhash"}, "spentTxId": "b9675bf2a7478842dfa921b404762f51fd30da8de8ab750dab03551bc76e48a0", "spentIndex": 5, "spentHeight": 172027}], "blockhash": "00000000000008943869b6c0c1f61e363ba90e0a26ed36b6629da143cfeff59f", "blockheight": 171239, "confirmations": 398879, "time": 1331809053, "blocktime": 1331809053, "isCoinBase": true, "valueOut": 50.0315001, "size": 134, "rawtx": "01000000010000000000000000000000000000000000000000000000000000000000000000ffffffff07040c350b1a016dffffffff01ba02362a010000004341044581b31010935ff0feb34405c3383782ea6ca7fef06ab3b9918f0df83d6f625fcb58d07168e0b196a0cc4c4b6800007df24ff6cb775cdb97f2c34b51af41a8e1ac00000000"}