{"txid": "2f810cbded6405801a0e06314b19fb9c4afabfe686d05ef9e6f9e8c7b0794d66", "version": 1, "locktime": 0, "vin": [{"coinbase": "03ff140504000e581a08124d696e656420627920425443204775696c642cfabe6d6d0a03978f2ac934bcd53e0b3868d3679e82c5d1b8b60ca0689dc295f6e517e7e4010000000000000008000eeab9676d0000", "sequence": 4294967295, "n": 0}], "vout": [{"value": "25.09482157", "n": 0, "scriptPubKey": {"hex": "76a91427a1f12771de5cc3b73941664b2537c15316be4388ac", "asm": "OP_DUP OP_HASH160 27a1f12771de5cc3b73941664b2537c15316be43 OP_EQUALVERIFY OP_CHECKSIG", "addresses": ["14cZMQk89mRYQkDEj8Rn25AnGoBi5H6uer"], "type": "pubkeyhash"}, "spentTxId": "8570d7df8aa00b5dfb57339d441bff5deb4e95684f9f83be4281722c60cf8a30", "spentIndex": 0, "spentHeight": 333188}], "blockhash": "000000000000000009a2f45e262f6e6f990ca16b84ea1068cc40e7a889c0d664", "blockheight": 333055, "confirmations": 237063, "time": 1417819359, "blocktime": 1417819359, "isCoinBase": true, "valueOut": 25.09482157, "size": 168, "rawtx": "01000000010000000000000000000000000000000000000000000000000000000000000000ffffffff5303ff140504000e581a08124d696e656420627920425443204775696c642cfabe6d6d0a03978f2ac934bcd53e0b3868d3679e82c5d1b8b60ca0689dc295f6e517e7e4010000000000000008000eeab9676d0000ffffffff01ada89395000000001976a91427a1f12771de5cc3b73941664b2537c15316be4388ac00000000"}