{"txid": "ce14f4a4d0bdecb1c4a5f0783e678775b99a6064a58dac3863af30ae12ad325a", "version": 1, "locktime": 0, "vin": [{"coinbase": "038ce20641d624be06e6eb6a41d624be06124a43092f4542312f4144362f2f4254432e544f502ffabe6d6d948021cfd55f0297769e874d4d357e5b330eb6c2cf8c8832378062407faae231010000000000000002ba0f25a500000000000000", "sequence": 4294967295, "n": 0}], "vout": [{"value": "13.23662209", "n": 0, "scriptPubKey": {"hex": "76a914ba507bae8f1643d2556000ca26b9301b9069dc6b88ac", "asm": "OP_DUP OP_HASH160 ba507bae8f1643d2556000ca26b9301b9069dc6b OP_EQUALVERIFY OP_CHECKSIG", "addresses": ["1Hz96kJKF2HLPGY15JWLB5m9qGNxvt8tHJ"], "type": "pubkeyhash"}, "spentTxId": "0ae4070012f9d30556bbca2e93767929cc66454c61df5c32f79ac838231dd921", "spentIndex": 3, "spentHeight": 452737}], "blockhash": "000000000000000001ac5298900eb45502fc8ff087d43f1c14207e3224582c6b", "blockheight": 451212, "confirmations": 118957, "time": 1486026801, "blocktime": 1486026801, "isCoinBase": true, "valueOut": 13.23662209, "size": 180, "rawtx": "01000000010000000000000000000000000000000000000000000000000000000000000000ffffffff5f038ce20641d624be06e6eb6a41d624be06124a43092f4542312f4144362f2f4254432e544f502ffabe6d6d948021cfd55f0297769e874d4d357e5b330eb6c2cf8c8832378062407faae231010000000000000002ba0f25a500000000000000ffffffff01817be54e000000001976a914ba507bae8f1643d2556000ca26b9301b9069dc6b88ac00000000"}