{"txid": "952c766ff1af632989c1ec15f16f5870a31ff04e5c503d5281866206b6cafb70", "version": 1, "locktime": 0, "vin": [{"coinbase": "03560108174d696e656420627920416e74506f6f6c3219205b0a85d5c0200000cc320300", "sequence": 4294967295, "n": 0}], "vout": [{"value": "12.52950489", "n": 0, "scriptPubKey": {"hex": "76a914edf10a7fac6b32e24daa5305c723f3de58db1bc888ac", "asm": "OP_DUP OP_HASH160 edf10a7fac6b32e24daa5305c723f3de58db1bc8 OP_EQUALVERIFY OP_CHECKSIG", "addresses": ["1Nh7uHdvY6fNwtQtM1G5EZAFPLC33B59rB"], "type": "pubkeyhash"}, "spentTxId": "34450c593f8d6ae7ea0b3f3c04579aec97e92261e1bb54e66b3d0cc4c56dee08", "spentIndex": 33, "spentHeight": 524776}, {"value": "0.00000000", "n": 1, "scriptPubKey": {"hex": "6a24aa21a9edccf2530ce6af9b190a6e06b963d30f742101591f98415193c817b6cce49688af", "asm": "OP_RETURN aa21a9edccf2530ce6af9b190a6e06b963d30f742101591f98415193c817b6cce49688af"}, "spentTxId": null, "spentIndex": null, "spentHeight": null}], "blockhash": "00000000000000000007e6273a8b229e0154720c429f54357b13d464eb625c78", "blockheight": 524630, "confirmations": 45539, "time": 1527416277, "blocktime": 1527416277, "isCoinBase": true, "valueOut": 12.52950489, "size": 168, "rawtx": "01000000010000000000000000000000000000000000000000000000000000000000000000ffffffff2403560108174d696e656420627920416e74506f6f6c3219205b0a85d5c0200000cc320300ffffffff02d981ae4a000000001976a914edf10a7fac6b32e24daa5305c723f3de58db1bc888ac0000000000000000266a24aa21a9edccf2530ce6af9b190a6e06b963d30f742101591f98415193c817b6cce49688af00000000"}