{"txid": "92ee746af8e81190e8953fda86c63087ffdaf4d2dadcec9331544cae0bcff30c", "version": 1, "locktime": 0, "vin": [{"coinbase": "040e80001c020c03", "sequence": 4294967295, "n": 0}], "vout": [{"value": "50.00000000", "n": 0, "scriptPubKey": {"hex": "41046147865b33a6f5f4cccb1d0fb3f4f9bc4bf6b48ddea8bbe80898402eb42f98f3605c1b7f51f9bf1c928a03d4f1de6b0f461b3064249fbf6cdb96105a9d12844cac", "asm": "046147865b33a6f5f4cccb1d0fb3f4f9bc4bf6b48ddea8bbe80898402eb42f98f3605c1b7f51f9bf1c928a03d4f1de6b0f461b3064249fbf6cdb96105a9d12844c OP_CHECKSIG", "addresses": ["1FKzT5Spg67A4zLogUVqSZPgTFmsZeegU"], "type": "pubkeyhash"}, "spentTxId": "93b9707b92e1dcce7c92af8b079129ee9b4ce0b6c518d7028c7873d9ad89b185", "spentIndex": 0, "spentHeight": 475928}], "blockhash": "00000000006077cb303a5f3f4d8ac37f12f63d661aef60203b5f73ab91652aa0", "blockheight": 75320, "confirmations": 494849, "time": 1282327325, "blocktime": 1282327325, "isCoinBase": true, "valueOut": 50, "size": 135, "rawtx": "01000000010000000000000000000000000000000000000000000000000000000000000000ffffffff08040e80001c020c03ffffffff0100f2052a010000004341046147865b33a6f5f4cccb1d0fb3f4f9bc4bf6b48ddea8bbe80898402eb42f98f3605c1b7f51f9bf1c928a03d4f1de6b0f461b3064249fbf6cdb96105a9d12844cac00000000"}