{"txid": "8e0819430b1ec6e14adc3c6dbf1c860ff8dcf3169b3140a24d301d8b91136a94", "version": 1, "locktime": 0, "vin": [{"coinbase": "03af3f081b2f5669614254432f4d696e6564206279207369636875616e73392f2cfabe6d6d147084b31514cb1b58c6a5bd193abf32f6bcf3d76ca1cf6f5ca549fbf2d90ccb040000000000000010d334d10764131122be7e8f66593c0000", "sequence": 4294967295, "n": 0}], "vout": [{"value": "12.77523001", "n": 0, "scriptPubKey": {"hex": "76a914536ffa992491508dca0354e52f32a3a7a679a53a88ac", "asm": "OP_DUP OP_HASH160 536ffa992491508dca0354e52f32a3a7a679a53a OP_EQUALVERIFY OP_CHECKSIG", "addresses": ["18cBEMRxXHqzWWCxZNtU91F5sbUNKhL5PX"], "type": "pubkeyhash"}, "spentTxId": "167156181e4c2f37f8b0366052585406d83d1ebb33b3b5f640336ac12a6430e1", "spentIndex": 5, "spentHeight": 540728}, {"value": "0.00000000", "n": 1, "scriptPubKey": {"hex": "6a24aa21a9ed93449a127f4315efe7cb3651d23f34f65883aee8da73c3e5dbcbbed4ff8b9c3c", "asm": "OP_RETURN aa21a9ed93449a127f4315efe7cb3651d23f34f65883aee8da73c3e5dbcbbed4ff8b9c3c"}, "spentTxId": null, "spentIndex": null, "spentHeight": null}], "blockhash": "00000000000000000015ffcedf501f61109d81b5a60188706fc4f637bc33031d", "blockheight": 540591, "confirmations": 29578, "time": 1536467184, "blocktime": 1536467184, "isCoinBase": true, "valueOut": 12.77523001, "size": 226, "rawtx": "01000000010000000000000000000000000000000000000000000000000000000000000000ffffffff5e03af3f081b2f5669614254432f4d696e6564206279207369636875616e73392f2cfabe6d6d147084b31514cb1b58c6a5bd193abf32f6bcf3d76ca1cf6f5ca549fbf2d90ccb040000000000000010d334d10764131122be7e8f66593c0000ffffffff023974254c000000001976a914536ffa992491508dca0354e52f32a3a7a679a53a88ac0000000000000000266a24aa21a9ed93449a127f4315efe7cb3651d23f34f65883aee8da73c3e5dbcbbed4ff8b9c3c00000000"}