{"txid": "528f0683f71e6c13dde0cf10f928bf4ff7850a0659a8b48593e015900349f498", "version": 1, "locktime": 0, "vin": [{"coinbase": "03195605062f503253482f04d04b175508100004a115d1070007425720506f6f6c", "sequence": 0, "n": 0}], "vout": [{"value": "0.00000000", "n": 0, "scriptPubKey": {"hex": "76a914d3730f005e16bbf741ccbf60a5f66b7be930cb7a88ac", "asm": "OP_DUP OP_HASH160 d3730f005e16bbf741ccbf60a5f66b7be930cb7a OP_EQUALVERIFY OP_CHECKSIG", "addresses": ["1LH3QtVjrQmKemRDaJzoWAibPhvi5v5pvk"], "type": "pubkeyhash"}, "spentTxId": null, "spentIndex": null, "spentHeight": null}, {"value": "25.12102271", "n": 1, "scriptPubKey": {"hex": "76a914be2682b4d8e8e52607c649ac2669dc1ee3c85e3788ac", "asm": "OP_DUP OP_HASH160 be2682b4d8e8e52607c649ac2669dc1ee3c85e37 OP_EQUALVERIFY OP_CHECKSIG", "addresses": ["1JLRXD8rjRgQtTS9MvfQALfHgGWau9L9ky"], "type": "pubkeyhash"}, "spentTxId": "8a96518be5b11c4716a897c3cefdb1c64cd2052dd73afb4029226721792b6eed", "spentIndex": 14, "spentHeight": 349876}], "blockhash": "00000000000000000bde17edcdf45505f4a0edc6572fcb26a180967d8ab721c7", "blockheight": 349721, "confirmations": 220397, "time": 1427590095, "blocktime": 1427590095, "isCoinBase": true, "valueOut": 25.12102271, "size": 152, "rawtx": "01000000010000000000000000000000000000000000000000000000000000000000000000ffffffff2103195605062f503253482f04d04b175508100004a115d1070007425720506f6f6c000000000200000000000000001976a914d3730f005e16bbf741ccbf60a5f66b7be930cb7a88ac7fa3bb95000000001976a914be2682b4d8e8e52607c649ac2669dc1ee3c85e3788ac00000000"}