{"txid": "292d65f31581d9369da549f0f46f87e081a62462c60e26b1c43cec2beb151741", "version": 1, "locktime": 0, "vin": [{"coinbase": "03cd210741d64851824809cd41d6485181bd5a91092f4542312f4144362f2f4254432e544f502ffabe6d6dd6ce94469480c9cfbf96b8b9402ceedb4b5ef526c819eafc4af6a3b0a930740e0100000000000000036fe68220adaaaa00000000", "sequence": 4294967295, "n": 0}], "vout": [{"value": "15.18576436", "n": 0, "scriptPubKey": {"hex": "76a914ba507bae8f1643d2556000ca26b9301b9069dc6b88ac", "asm": "OP_DUP OP_HASH160 ba507bae8f1643d2556000ca26b9301b9069dc6b OP_EQUALVERIFY OP_CHECKSIG", "addresses": ["1Hz96kJKF2HLPGY15JWLB5m9qGNxvt8tHJ"], "type": "pubkeyhash"}, "spentTxId": "da7705906e0277fde19ab29dcb83787c8a5e19b0f015a7ed03984d86d7205caa", "spentIndex": 2, "spentHeight": 467576}], "blockhash": "0000000000000000018c087cbc6d0e88d10ec87ffeda79e95580b9e6a4cb287a", "blockheight": 467405, "confirmations": 102787, "time": 1495352859, "blocktime": 1495352859, "isCoinBase": true, "valueOut": 15.18576436, "size": 180, "rawtx": "01000000010000000000000000000000000000000000000000000000000000000000000000ffffffff5f03cd210741d64851824809cd41d6485181bd5a91092f4542312f4144362f2f4254432e544f502ffabe6d6dd6ce94469480c9cfbf96b8b9402ceedb4b5ef526c819eafc4af6a3b0a930740e0100000000000000036fe68220adaaaa00000000ffffffff0134a3835a000000001976a914ba507bae8f1643d2556000ca26b9301b9069dc6b88ac00000000"}