{"txid": "fd17e58a4ed0d463ef1c21646243eac23c5214e2c53b6a9c1a277da1b231187e", "version": 1, "locktime": 0, "vin": [{"txid": "a9f1e062065ac7c81e792ef396aa74f92e0b3bd317c374fbda2683b9eff6b885", "vout": 0, "sequence": 4294967295, "n": 0, "scriptSig": {"hex": "48304502210092d40ecc338f3e922c4ac638064e892dff6f30b08f23c705954b66ad57c497e802204fae40ec80f581e7e44b7343b92830a05b9c4e9ac938f5bbe9c668cda6684744014104808e45cfe8f95f6f67b9bb53eefabd8f2241ef25fa11a47c955b6500f959e8b3903368b0bd5d2c82adc8967afa6b8cc51ace17f6781443e0fa6f51ae2f77ad77", "asm": "304502210092d40ecc338f3e922c4ac638064e892dff6f30b08f23c705954b66ad57c497e802204fae40ec80f581e7e44b7343b92830a05b9c4e9ac938f5bbe9c668cda6684744[ALL] 04808e45cfe8f95f6f67b9bb53eefabd8f2241ef25fa11a47c955b6500f959e8b3903368b0bd5d2c82adc8967afa6b8cc51ace17f6781443e0fa6f51ae2f77ad77"}, "addr": "1P4VZLfKQjsJsASdvZc1MXEyHMv6oem9Nm", "valueSat": 16447413315, "value": 164.47413315, "doubleSpentTxID": null}], "vout": [{"value": "164.45413315", "n": 0, "scriptPubKey": {"hex": "76a9148ada001e5867744a44a6d7ea85736d9f765baceb88ac", "asm": "OP_DUP OP_HASH160 8ada001e5867744a44a6d7ea85736d9f765baceb OP_EQUALVERIFY OP_CHECKSIG", "addresses": ["1DfBQQoJ1WcM88YjFHPAVMgSzh6F7emkRY"], "type": "pubkeyhash"}, "spentTxId": "cb93140e10378b94d5577da2ef9796a7b550ba58669addd0b8364ee148762c42", "spentIndex": 0, "spentHeight": 128772}, {"value": "0.02000000", "n": 1, "scriptPubKey": {"hex": "76a914af6def41ff5034f3278f26da9f1cadc39ff4589f88ac", "asm": "OP_DUP OP_HASH160 af6def41ff5034f3278f26da9f1cadc39ff4589f OP_EQUALVERIFY OP_CHECKSIG", "addresses": ["1GzawxhSKXvMMDfaocSPiAEoGNByKUvqMU"], "type": "pubkeyhash"}, "spentTxId": null, "spentIndex": null, "spentHeight": null}], "blockhash": "00000000000017720245663bbcc7246a39da53556f44e6a9a4611a739bfb6f15", "blockheight": 128771, "confirmations": 441256, "time": 1307273838, "blocktime": 1307273838, "valueOut": 164.47413315, "size": 258, "valueIn": 164.47413315, "fees": 0, "rawtx": "010000000185b8f6efb98326dafb74c317d33b0b2ef974aa96f32e791ec8c75a0662e0f1a9000000008b48304502210092d40ecc338f3e922c4ac638064e892dff6f30b08f23c705954b66ad57c497e802204fae40ec80f581e7e44b7343b92830a05b9c4e9ac938f5bbe9c668cda6684744014104808e45cfe8f95f6f67b9bb53eefabd8f2241ef25fa11a47c955b6500f959e8b3903368b0bd5d2c82adc8967afa6b8cc51ace17f6781443e0fa6f51ae2f77ad77ffffffff02c31739d4030000001976a9148ada001e5867744a44a6d7ea85736d9f765baceb88ac80841e00000000001976a914af6def41ff5034f3278f26da9f1cadc39ff4589f88ac00000000"}