{"txid": "91ce1c89bf1b5f91b154d3e4d445512f9de85203cef795b7e77a3ecceb3c3810", "version": 1, "locktime": 0, "vin": [{"txid": "6a071a185eb7fb3c35a1e208c1927a11c51e506d3372df8f27f916faf701fcc0", "vout": 0, "sequence": 4294967295, "n": 0, "scriptSig": {"hex": "4930460221008e8055168e5b92c59bc161eeccee374c5a5e4b6a62405b9d659161c55b4eac7a022100de5fdd6a5b32fc958ca01ffcbcdd667d5d7559778e12d217ffeddb4353a2dfc80141040160eb9c2d36fb90445bbf314949b676d3262bcd65968e006e432d042e00a68a0ddf9fba23349bf98ab38a9aea0990c8dfce3bf9e691b1fb4f5d83233d639d4f", "asm": "30460221008e8055168e5b92c59bc161eeccee374c5a5e4b6a62405b9d659161c55b4eac7a022100de5fdd6a5b32fc958ca01ffcbcdd667d5d7559778e12d217ffeddb4353a2dfc8[ALL] 040160eb9c2d36fb90445bbf314949b676d3262bcd65968e006e432d042e00a68a0ddf9fba23349bf98ab38a9aea0990c8dfce3bf9e691b1fb4f5d83233d639d4f"}, "addr": "1AECjY8KDyxjBtroK9mBPdSxhbVEFKCK7Y", "valueSat": 155000000, "value": 1.55, "doubleSpentTxID": null}], "vout": [{"value": "1.50000000", "n": 0, "scriptPubKey": {"hex": "76a91409dd721dd9e7d6417747e0a01833fa3674bb570888ac", "asm": "OP_DUP OP_HASH160 09dd721dd9e7d6417747e0a01833fa3674bb5708 OP_EQUALVERIFY OP_CHECKSIG", "addresses": ["1uAN3o4Nyr1qTuY2qd7WpjTD3g1YhG25P"], "type": "pubkeyhash"}, "spentTxId": "803f7cc513837ac8ffd40185db25c67d01ffb6dbfcf08a19abd22972c3d5c874", "spentIndex": 0, "spentHeight": 94037}, {"value": "0.05000000", "n": 1, "scriptPubKey": {"hex": "76a91429b28f2de956cc61138fafdb4264c53b2b812b2b88ac", "asm": "OP_DUP OP_HASH160 29b28f2de956cc61138fafdb4264c53b2b812b2b OP_EQUALVERIFY OP_CHECKSIG", "addresses": ["14oUcPB7Vd5ySZZKwf2oMmqW4btYSJsFSY"], "type": "pubkeyhash"}, "spentTxId": "2cda4fd9474a9d4e022d661d8b247eef922acc9f1867b3a81dc22052dbdeaf54", "spentIndex": 0, "spentHeight": 137680}], "blockhash": "00000000000354403ae9bff9d4a5edf4c4da90b8c602e86db539be5b8287fb6f", "blockheight": 94035, "confirmations": 475979, "time": 1290814419, "blocktime": 1290814419, "valueOut": 1.55, "size": 259, "valueIn": 1.55, "fees": 0, "rawtx": "0100000001c0fc01f7fa16f9278fdf72336d501ec5117a92c108e2a1353cfbb75e181a076a000000008c4930460221008e8055168e5b92c59bc161eeccee374c5a5e4b6a62405b9d659161c55b4eac7a022100de5fdd6a5b32fc958ca01ffcbcdd667d5d7559778e12d217ffeddb4353a2dfc80141040160eb9c2d36fb90445bbf314949b676d3262bcd65968e006e432d042e00a68a0ddf9fba23349bf98ab38a9aea0990c8dfce3bf9e691b1fb4f5d83233d639d4fffffffff0280d1f008000000001976a91409dd721dd9e7d6417747e0a01833fa3674bb570888ac404b4c00000000001976a91429b28f2de956cc61138fafdb4264c53b2b812b2b88ac00000000"}