{"txid": "37d2b9fe04dd5d522f0b1c03204beb4d5b7907b8f50ffa23e1ede24e44200e07", "version": 1, "locktime": 0, "vin": [{"txid": "b2c68e3e33519fd8316908c759fc931b4092c73ae75662d75a247e16e8642a46", "vout": 1, "sequence": 4294967295, "n": 0, "scriptSig": {"hex": "4730440220071f77d85e7eea35afb792e8fa046d19e6930b1276e1b36978d8ce1bb19fb1c9022025bad14778b245a0c7ba29b823cacc3b087f892f73d61caf0a2a6b4c87cd927d014104964756d1d8a6d433fcb35a92732c72dd7c0cea8d20391500f624ad3f9b10075ee5fb9844177f312476de6077446bda98a01edb94bfe1e534d997e686f54154a8", "asm": "30440220071f77d85e7eea35afb792e8fa046d19e6930b1276e1b36978d8ce1bb19fb1c9022025bad14778b245a0c7ba29b823cacc3b087f892f73d61caf0a2a6b4c87cd927d[ALL] 04964756d1d8a6d433fcb35a92732c72dd7c0cea8d20391500f624ad3f9b10075ee5fb9844177f312476de6077446bda98a01edb94bfe1e534d997e686f54154a8"}, "addr": "1Goux1sBQk4YNc2k3WxDfxSDfkGFnoKrxQ", "valueSat": 904048735, "value": 9.04048735, "doubleSpentTxID": null}], "vout": [{"value": "0.01000000", "n": 0, "scriptPubKey": {"hex": "76a91406f1b670791f9256bffc898f474271c22f4bb94988ac", "asm": "OP_DUP OP_HASH160 06f1b670791f9256bffc898f474271c22f4bb949 OP_EQUALVERIFY OP_CHECKSIG", "addresses": ["1dice9wcMu5hLF4g81u8nioL5mmSHTApw"], "type": "pubkeyhash"}, "spentTxId": "10afae21f944a51ba3ed6efb770683d470d7bca606a0e1b66ce66303d8a3e7ae", "spentIndex": 0, "spentHeight": 224286}, {"value": "9.02998735", "n": 1, "scriptPubKey": {"hex": "76a914ad69385f9591fb18f392e0097ba6cc853382f5be88ac", "asm": "OP_DUP OP_HASH160 ad69385f9591fb18f392e0097ba6cc853382f5be OP_EQUALVERIFY OP_CHECKSIG", "addresses": ["1Goux1sBQk4YNc2k3WxDfxSDfkGFnoKrxQ"], "type": "pubkeyhash"}, "spentTxId": "08c2ec96414a1a0d5ce50c642291db820aa77b963b1861d341d6a305e1e7c186", "spentIndex": 4, "spentHeight": 224286}], "blockhash": "000000000000013f0f7f4c2ae411f067c54253e86dd8a3485356fd1a1cd2662f", "blockheight": 224286, "confirmations": 345741, "time": 1362433808, "blocktime": 1362433808, "valueOut": 9.03998735, "size": 257, "valueIn": 9.04048735, "fees": 0.0005, "rawtx": "0100000001462a64e8167e245ad76256e73ac792401b93fc59c7086931d89f51333e8ec6b2010000008a4730440220071f77d85e7eea35afb792e8fa046d19e6930b1276e1b36978d8ce1bb19fb1c9022025bad14778b245a0c7ba29b823cacc3b087f892f73d61caf0a2a6b4c87cd927d014104964756d1d8a6d433fcb35a92732c72dd7c0cea8d20391500f624ad3f9b10075ee5fb9844177f312476de6077446bda98a01edb94bfe1e534d997e686f54154a8ffffffff0240420f00000000001976a91406f1b670791f9256bffc898f474271c22f4bb94988accfaad235000000001976a914ad69385f9591fb18f392e0097ba6cc853382f5be88ac00000000"}