{"txid": "4bd87f3577149b080ff24b1c9aac68025cd388387cb7ecf30d8a27d69925d3c4", "version": 1, "locktime": 0, "vin": [{"txid": "222b6829ec66f27ea903b4a1fd8317df8a2606543138c2e4c3a54ac9793b37d7", "vout": 3, "sequence": 4294967295, "n": 0, "scriptSig": {"hex": "47304402205dbaa35badbc855870fc207fcc6cab5afa16b6bc689ee1cb51da6539245ae94d02205629f4b3de06e3511a3cc3534b08bba2fc406a6df43b104ba4b1a32a63c3c1df014104e62c0bd770bd8faf44f7b39a4f26c227c1ddb8581a921e21a494b220a142b32ebf5e3378266665ba733cb235965bcc9fa0a38fd54e255d0b61047a5cd24bae08", "asm": "304402205dbaa35badbc855870fc207fcc6cab5afa16b6bc689ee1cb51da6539245ae94d02205629f4b3de06e3511a3cc3534b08bba2fc406a6df43b104ba4b1a32a63c3c1df[ALL] 04e62c0bd770bd8faf44f7b39a4f26c227c1ddb8581a921e21a494b220a142b32ebf5e3378266665ba733cb235965bcc9fa0a38fd54e255d0b61047a5cd24bae08"}, "addr": "1dice6YgEVBf88erBFra9BHf6ZMoyvG88", "valueSat": 1000000000, "value": 10, "doubleSpentTxID": null}], "vout": [{"value": "0.05000000", "n": 0, "scriptPubKey": {"hex": "76a914319a98050b272245a0b7e29609a40e11fae6f90988ac", "asm": "OP_DUP OP_HASH160 319a98050b272245a0b7e29609a40e11fae6f909 OP_EQUALVERIFY OP_CHECKSIG", "addresses": ["15XHJmVWjAv76WZGYRNhJArKb46TL9oV18"], "type": "pubkeyhash"}, "spentTxId": "ffd2f755a3e3959a59c6e221ab8dbe436544be5dccb64d0a4d9014ad3a2277dc", "spentIndex": 4, "spentHeight": 228107}, {"value": "9.94900000", "n": 1, "scriptPubKey": {"hex": "76a914e04d22e13420d48e8ea69ac8b7abfb229b9d6bf188ac", "asm": "OP_DUP OP_HASH160 e04d22e13420d48e8ea69ac8b7abfb229b9d6bf1 OP_EQUALVERIFY OP_CHECKSIG", "addresses": ["1MSzmVTBaaSpKDARK3VGvP8v7aCtwZ9zbw"], "type": "pubkeyhash"}, "spentTxId": "65d02317cb03f9864c50ff4694dc5d5dcdac1f8187f9fc477b3c6d6926f73b7d", "spentIndex": 11, "spentHeight": 228108}], "blockhash": "00000000000000b8a0b73eeec1cd9652c14c00bd7e39b257c3e2c064ccfa7c6b", "blockheight": 228104, "confirmations": 341903, "time": 1364300809, "blocktime": 1364300809, "valueOut": 9.999, "size": 257, "valueIn": 10, "fees": 0.001, "rawtx": "0100000001d7373b79c94aa5c3e4c238315406268adf1783fda1b403a97ef266ec29682b22030000008a47304402205dbaa35badbc855870fc207fcc6cab5afa16b6bc689ee1cb51da6539245ae94d02205629f4b3de06e3511a3cc3534b08bba2fc406a6df43b104ba4b1a32a63c3c1df014104e62c0bd770bd8faf44f7b39a4f26c227c1ddb8581a921e21a494b220a142b32ebf5e3378266665ba733cb235965bcc9fa0a38fd54e255d0b61047a5cd24bae08ffffffff02404b4c00000000001976a914319a98050b272245a0b7e29609a40e11fae6f90988ac20f84c3b000000001976a914e04d22e13420d48e8ea69ac8b7abfb229b9d6bf188ac00000000"}