{"txid": "eab05754604a9a416ee5ac54a87d9fe80031ddc2f385c83c839cc908dc75974e", "version": 1, "locktime": 0, "vin": [{"txid": "7f136f4011e28cea812e175e47eb5ff6d53925546250f4efe937fcd0d0915d4b", "vout": 0, "sequence": 4294967295, "n": 0, "scriptSig": {"hex": "483045022100d5cecf2bb5d661b98a6369bf28dd3d4d4b075d7a1ba5d0b59352686e55dd3ea4022028b009541c27d345b6caf2f0fb77c692b8f290b0b3e2e2a68192b4a2402935730141043aa381bcd6c32390d92f1e95db3e3293c3bbe7eff220f5c64bd7a92cb16d575ede7e8d752eaeaafc1f84b579de5e72abe025bdaee72df2ae3a30b48d4e20aa29", "asm": "3045022100d5cecf2bb5d661b98a6369bf28dd3d4d4b075d7a1ba5d0b59352686e55dd3ea4022028b009541c27d345b6caf2f0fb77c692b8f290b0b3e2e2a68192b4a240293573[ALL] 043aa381bcd6c32390d92f1e95db3e3293c3bbe7eff220f5c64bd7a92cb16d575ede7e8d752eaeaafc1f84b579de5e72abe025bdaee72df2ae3a30b48d4e20aa29"}, "addr": "1PzVWDr9CiMCep3BwLmJkCv54Jm3TwbCvx", "valueSat": 4961200000, "value": 49.612, "doubleSpentTxID": null}], "vout": [{"value": "49.11200000", "n": 0, "scriptPubKey": {"hex": "76a9147657119634408f01e25723ff5ed617f4db06b89088ac", "asm": "OP_DUP OP_HASH160 7657119634408f01e25723ff5ed617f4db06b890 OP_EQUALVERIFY OP_CHECKSIG", "addresses": ["1Bnj3Gxm9mXxH841MuTpdDtpYSHuN4BPSf"], "type": "pubkeyhash"}, "spentTxId": "2146ae801ceeb7022edc9a5cda751db19d62914f7ae300a7ca41b801065b72c4", "spentIndex": 0, "spentHeight": 144864}, {"value": "0.50000000", "n": 1, "scriptPubKey": {"hex": "76a914bdfde0b20d69fc61b13c982c87acecd9530a9ab788ac", "asm": "OP_DUP OP_HASH160 bdfde0b20d69fc61b13c982c87acecd9530a9ab7 OP_EQUALVERIFY OP_CHECKSIG", "addresses": ["1JKaqzMsR5APVug8gTD1wWbvSu8t8qUm2U"], "type": "pubkeyhash"}, "spentTxId": "3922fda7c30ac3e2dfbf79089dbb285865a6d2877cdce9ab695d71058baa80d5", "spentIndex": 1, "spentHeight": 144869}], "blockhash": "00000000000000bf5c79b6cf84a9687fa2ff66835cbd483fd12990a2b0a6ca55", "blockheight": 144861, "confirmations": 425146, "time": 1315716140, "blocktime": 1315716140, "valueOut": 49.612, "size": 258, "valueIn": 49.612, "fees": 0, "rawtx": "01000000014b5d91d0d0fc37e9eff45062542539d5f65feb475e172e81ea8ce211406f137f000000008b483045022100d5cecf2bb5d661b98a6369bf28dd3d4d4b075d7a1ba5d0b59352686e55dd3ea4022028b009541c27d345b6caf2f0fb77c692b8f290b0b3e2e2a68192b4a2402935730141043aa381bcd6c32390d92f1e95db3e3293c3bbe7eff220f5c64bd7a92cb16d575ede7e8d752eaeaafc1f84b579de5e72abe025bdaee72df2ae3a30b48d4e20aa29ffffffff0200f7ba24010000001976a9147657119634408f01e25723ff5ed617f4db06b89088ac80f0fa02000000001976a914bdfde0b20d69fc61b13c982c87acecd9530a9ab788ac00000000"}