{"txid": "b7178d4829fbb95ffe97a89d5ffc488074df7978b04f0660ac4a186dbb0903ca", "version": 1, "locktime": 0, "vin": [{"coinbase": "04d21c081b0114", "sequence": 4294967295, "n": 0}], "vout": [{"value": "50.00000000", "n": 0, "scriptPubKey": {"hex": "410485195962cfd357162409a00503301acaac4005aacc2195ff7d73a040ab500e0382b0fdc6a820b68f055365772c5379968dcb8a693c5fffe2cb9e235446c72850ac", "asm": "0485195962cfd357162409a00503301acaac4005aacc2195ff7d73a040ab500e0382b0fdc6a820b68f055365772c5379968dcb8a693c5fffe2cb9e235446c72850 OP_CHECKSIG", "addresses": ["1rQ1WzPd3o6zGutp4x8KXZhLCLjXuzFZm"], "type": "pubkeyhash"}, "spentTxId": "23794b82a34f0eaa50d8f4bcae1d37383c0322bc94670afc05e67aeaad638506", "spentIndex": 51, "spentHeight": 102462}], "blockhash": "000000000002338ae72cd6903fbc90fec7b0e62f9bcf7eb1cf97dec2dc84f6f2", "blockheight": 95259, "confirmations": 474755, "time": 1291369409, "blocktime": 1291369409, "isCoinBase": true, "valueOut": 50, "size": 134, "rawtx": "01000000010000000000000000000000000000000000000000000000000000000000000000ffffffff0704d21c081b0114ffffffff0100f2052a0100000043410485195962cfd357162409a00503301acaac4005aacc2195ff7d73a040ab500e0382b0fdc6a820b68f055365772c5379968dcb8a693c5fffe2cb9e235446c72850ac00000000"}