{"txid": "471d907c4bc4b79cedd0d82818d6bb1c6ff58e04ac3cb06cb39d39cc388bcc16", "version": 1, "locktime": 0, "vin": [{"coinbase": "04ffff001d029800", "sequence": 4294967295, "n": 0}], "vout": [{"value": "50.00000000", "n": 0, "scriptPubKey": {"hex": "4104f638d18d9b3a974c55c1de0f872f0b8c386e15a60ff9f6b3af4c13c1b72c684064719a7445dc37817f018660201224db7cb3ba37a8f5c6cfbd4e20e9fe5f965aac", "asm": "04f638d18d9b3a974c55c1de0f872f0b8c386e15a60ff9f6b3af4c13c1b72c684064719a7445dc37817f018660201224db7cb3ba37a8f5c6cfbd4e20e9fe5f965a OP_CHECKSIG", "addresses": ["1P4Ri3Fp8Ye2qPf57NpocXfCqwAX6ComXj"], "type": "pubkeyhash"}, "spentTxId": null, "spentIndex": null, "spentHeight": null}], "blockhash": "00000000a7631c743a881e667c84a01fca2a1a8f0b5aa7909e97db9dc5ced25e", "blockheight": 22482, "confirmations": 547532, "time": 1252436015, "blocktime": 1252436015, "isCoinBase": true, "valueOut": 50, "size": 135, "rawtx": "01000000010000000000000000000000000000000000000000000000000000000000000000ffffffff0804ffff001d029800ffffffff0100f2052a01000000434104f638d18d9b3a974c55c1de0f872f0b8c386e15a60ff9f6b3af4c13c1b72c684064719a7445dc37817f018660201224db7cb3ba37a8f5c6cfbd4e20e9fe5f965aac00000000"}