{"txid": "419678586cf1e0965e5752c59577ba9e3d5cdbbe66a3199322d6839268337e00", "version": 1, "locktime": 0, "vin": [{"txid": "e0143874311c456f1f2d11251f63e841795899e055c362b76217a97a459e39b3", "vout": 1, "sequence": 4294967295, "n": 0, "scriptSig": {"hex": "483045022100869dffce2c97b91ad1755bd74a00d3a57c1d8530cd694930b98752b8b7bffaf1022032794e54206f56b94c34defef5d81549ea56828b3f49b839779a555d9c0ef9670141048cc0b94178715f03ed3d0bceb368191d0fdd7fc16d806567f6f2c45aecafb8f53e5ef849564072189b9b4f8bfe1564da776567ba359cfb0c05e839bcf65371ab", "asm": "3045022100869dffce2c97b91ad1755bd74a00d3a57c1d8530cd694930b98752b8b7bffaf1022032794e54206f56b94c34defef5d81549ea56828b3f49b839779a555d9c0ef967[ALL] 048cc0b94178715f03ed3d0bceb368191d0fdd7fc16d806567f6f2c45aecafb8f53e5ef849564072189b9b4f8bfe1564da776567ba359cfb0c05e839bcf65371ab"}, "addr": "1dice8EMZmqKvrGE4Qc9bUFf9PX3xaYDp", "valueSat": 9521605, "value": 0.09521605, "doubleSpentTxID": null}], "vout": [{"value": "0.00000001", "n": 0, "scriptPubKey": {"hex": "76a914942a082b8419c7c1dff18cf23c9d800e16b8700088ac", "asm": "OP_DUP OP_HASH160 942a082b8419c7c1dff18cf23c9d800e16b87000 OP_EQUALVERIFY OP_CHECKSIG", "addresses": ["1EWRMpXkTNxAoVjHq7yH2ajYqSj5q5E4Ni"], "type": "pubkeyhash"}, "spentTxId": "ad5ca12396f4e34a668f4c0b90838054c9bd6a15430d2e1054324a926065d53a", "spentIndex": 3, "spentHeight": 208172}, {"value": "0.09421604", "n": 1, "scriptPubKey": {"hex": "76a914bb3ae2a5b6cd3ce97a627c70395d2bc52a69dd5688ac", "asm": "OP_DUP OP_HASH160 bb3ae2a5b6cd3ce97a627c70395d2bc52a69dd56 OP_EQUALVERIFY OP_CHECKSIG", "addresses": ["1J4yuJFqozxLWTvnExR4Xxe9W4B89kaukY"], "type": "pubkeyhash"}, "spentTxId": "aee92893a4e99f57def45e6d3cc11bbbeab88a9beafe3e3c21142d8b427668ab", "spentIndex": 2, "spentHeight": 208112}], "blockhash": "000000000000032eaad4a211204454cb8bfc8c020df1fb782136ceb3d2348b81", "blockheight": 208110, "confirmations": 361917, "time": 1353029622, "blocktime": 1353029622, "valueOut": 0.09421605, "size": 258, "valueIn": 0.09521605, "fees": 0.001, "rawtx": "0100000001b3399e457aa91762b762c355e099587941e8631f25112d1f6f451c31743814e0010000008b483045022100869dffce2c97b91ad1755bd74a00d3a57c1d8530cd694930b98752b8b7bffaf1022032794e54206f56b94c34defef5d81549ea56828b3f49b839779a555d9c0ef9670141048cc0b94178715f03ed3d0bceb368191d0fdd7fc16d806567f6f2c45aecafb8f53e5ef849564072189b9b4f8bfe1564da776567ba359cfb0c05e839bcf65371abffffffff0201000000000000001976a914942a082b8419c7c1dff18cf23c9d800e16b8700088ac24c38f00000000001976a914bb3ae2a5b6cd3ce97a627c70395d2bc52a69dd5688ac00000000"}