{"txid": "feaae1dd48a227c05a050a89755ca46681ad158294368b92c924594d57f2aacf", "version": 1, "locktime": 0, "vin": [{"txid": "6fecffac847604fd046865ba681df91ca2d3271658766ee23bb2341c6db94231", "vout": 0, "sequence": 4294967295, "n": 0, "scriptSig": {"hex": "493046022100e8c9fe5ba7d8eb10d6b62247421fdbc4c1e26b28914408d4832c0f0b864b837d022100a3de489b3cfa6852ec10be59d5a02e0136c949273837043525c0b4636c8a2ca5012103635060beb176b687aa27f9ac33892658843d4b53aa47a370be7aa3b1f4d62625", "asm": "3046022100e8c9fe5ba7d8eb10d6b62247421fdbc4c1e26b28914408d4832c0f0b864b837d022100a3de489b3cfa6852ec10be59d5a02e0136c949273837043525c0b4636c8a2ca5[ALL] 03635060beb176b687aa27f9ac33892658843d4b53aa47a370be7aa3b1f4d62625"}, "addr": "12aFNGiYDhieQyD9FnxVpsEBTyam3ucMeC", "valueSat": 9828588658, "value": 98.28588658, "doubleSpentTxID": null}], "vout": [{"value": "97.78588658", "n": 0, "scriptPubKey": {"hex": "76a9140925845e55a8431722211018561b5d6dcde03e7488ac", "asm": "OP_DUP OP_HASH160 0925845e55a8431722211018561b5d6dcde03e74 OP_EQUALVERIFY OP_CHECKSIG", "addresses": ["1qN2TZ5971bgsEXY4EeDYGARmLeATh6Qv"], "type": "pubkeyhash"}, "spentTxId": "1229571153565792538c54f7fa12e2157a88490d12dde2c776ac529679d69336", "spentIndex": 0, "spentHeight": 201489}, {"value": "0.50000000", "n": 1, "scriptPubKey": {"hex": "76a9146734e0366e00e8138f1999e2c62eb73c10e0199188ac", "asm": "OP_DUP OP_HASH160 6734e0366e00e8138f1999e2c62eb73c10e01991 OP_EQUALVERIFY OP_CHECKSIG", "addresses": ["1AQhwdsK9eJFG1AwFnVk28K542nQf9Tsbo"], "type": "pubkeyhash"}, "spentTxId": "2d257ce793c32e424407e7c681c2de9385712a3af4e1594fc5f32a5f86d43475", "spentIndex": 0, "spentHeight": 201540}], "blockhash": "00000000000000385a2624271e0ffdc07a489a5a1df29145d9adad7485a5b7b2", "blockheight": 201477, "confirmations": 368530, "time": 1349157755, "blocktime": 1349157755, "valueOut": 98.28588658, "size": 227, "valueIn": 98.28588658, "fees": 0, "rawtx": "01000000013142b96d1c34b23be26e76581627d3a21cf91d68ba656804fd047684acffec6f000000006c493046022100e8c9fe5ba7d8eb10d6b62247421fdbc4c1e26b28914408d4832c0f0b864b837d022100a3de489b3cfa6852ec10be59d5a02e0136c949273837043525c0b4636c8a2ca5012103635060beb176b687aa27f9ac33892658843d4b53aa47a370be7aa3b1f4d62625ffffffff02f26bd946020000001976a9140925845e55a8431722211018561b5d6dcde03e7488ac80f0fa02000000001976a9146734e0366e00e8138f1999e2c62eb73c10e0199188ac00000000"}