{"txid": "26a1df16b96484c986dd38741488c3a9f05676f4e9abd6320e45c4c03e2d2256", "version": 1, "locktime": 0, "vin": [{"txid": "49aed4072e531c952c9a8763e5286844dd7c964d1f5c03ea4b20adcd970ae729", "vout": 0, "sequence": 4294967295, "n": 0, "scriptSig": {"hex": "4930460221009c1993f53013dc719e83468b3beb778bb8158de98c636f3a5c9736eb78a7fc81022100eb71906a13d067c2e4c4f39c3d5d60011459a5a44b6fc46d6473abb35fb25b46014104f34482e95c18ac57aa86f95dc29e2fd8923f26321908121d3f16600d933ce6dea3d33e3e54985a02bdd484622db6d4742c6ee175c90ea4b874e3687dce879899", "asm": "30460221009c1993f53013dc719e83468b3beb778bb8158de98c636f3a5c9736eb78a7fc81022100eb71906a13d067c2e4c4f39c3d5d60011459a5a44b6fc46d6473abb35fb25b46[ALL] 04f34482e95c18ac57aa86f95dc29e2fd8923f26321908121d3f16600d933ce6dea3d33e3e54985a02bdd484622db6d4742c6ee175c90ea4b874e3687dce879899"}, "addr": "1N2wiQVEUyekea8s5hivymtEQtDtK33ubq", "valueSat": 53552613, "value": 0.53552613, "doubleSpentTxID": null}], "vout": [{"value": "0.50000000", "n": 0, "scriptPubKey": {"hex": "76a91406f1b6716309948fa3b07b0a6b66804fdfd6873188ac", "asm": "OP_DUP OP_HASH160 06f1b6716309948fa3b07b0a6b66804fdfd68731 OP_EQUALVERIFY OP_CHECKSIG", "addresses": ["1diceDCd27Cc22HV3qPNZKwGnZ8QwhLTc"], "type": "pubkeyhash"}, "spentTxId": "189d5b80f924d98891907a23d23ea5445f47bc988e9a74a67c6a9eed303af666", "spentIndex": 0, "spentHeight": 245757}, {"value": "0.03542613", "n": 1, "scriptPubKey": {"hex": "76a914e6b8baf2c21be51450e1702c599fcb89336fc87f88ac", "asm": "OP_DUP OP_HASH160 e6b8baf2c21be51450e1702c599fcb89336fc87f OP_EQUALVERIFY OP_CHECKSIG", "addresses": ["1N2wiQVEUyekea8s5hivymtEQtDtK33ubq"], "type": "pubkeyhash"}, "spentTxId": "34b5c96617f6cda990e723af12beef6c14dc2f5fa87d1cc02bc46cd2fe24c574", "spentIndex": 4, "spentHeight": 246160}], "blockhash": "00000000000000c0f26605c0fc03cdc2f3e52a5e5a8cabc9a36e12e6f2f684c2", "blockheight": 245756, "confirmations": 324292, "time": 1373414952, "blocktime": 1373414952, "valueOut": 0.53542613, "size": 259, "valueIn": 0.53552613, "fees": 0.0001, "rawtx": "010000000129e70a97cdad204bea035c1f4d967cdd446828e563879a2c951c532e07d4ae49000000008c4930460221009c1993f53013dc719e83468b3beb778bb8158de98c636f3a5c9736eb78a7fc81022100eb71906a13d067c2e4c4f39c3d5d60011459a5a44b6fc46d6473abb35fb25b46014104f34482e95c18ac57aa86f95dc29e2fd8923f26321908121d3f16600d933ce6dea3d33e3e54985a02bdd484622db6d4742c6ee175c90ea4b874e3687dce879899ffffffff0280f0fa02000000001976a91406f1b6716309948fa3b07b0a6b66804fdfd6873188ac550e3600000000001976a914e6b8baf2c21be51450e1702c599fcb89336fc87f88ac00000000"}