{"txid": "628ab63198fce92e0d271657a3433b3eb103ac0016dd275308ff246e6bb7142a", "version": 1, "locktime": 0, "vin": [{"txid": "f1eeb873236dd39f778466a629e15ca430fbf10490e280c76c24dd26a19ea140", "vout": 1, "sequence": 4294967295, "n": 0, "scriptSig": {"hex": "493046022100b849a5f71715a1a271ed1fa0075e093db759b52271642b5e5b53cd212a9387a7022100b3d12e6bea254f99418b75c2779e7ea30c29e154f328495faecabfa920d0c35c0141046e54084a17b7f2aa2bb8c9c90f30ab550f6ca4fe485b6d4d8e700777d617efd3c15817751654fb428b5ff6782bf6ac44a323341d796e4d3df26af31b4461fe95", "asm": "3046022100b849a5f71715a1a271ed1fa0075e093db759b52271642b5e5b53cd212a9387a7022100b3d12e6bea254f99418b75c2779e7ea30c29e154f328495faecabfa920d0c35c[ALL] 046e54084a17b7f2aa2bb8c9c90f30ab550f6ca4fe485b6d4d8e700777d617efd3c15817751654fb428b5ff6782bf6ac44a323341d796e4d3df26af31b4461fe95"}, "addr": "17TZYi5afcYqRpT2W6WQm22PEPPTMRPLwP", "valueSat": 645217785, "value": 6.45217785, "doubleSpentTxID": null}, {"txid": "63db3648ef3712d1c0e6f96daabbda127a4eded979076d8ca5a7a81a6ba5da2e", "vout": 1, "sequence": 4294967295, "n": 1, "scriptSig": {"hex": "493046022100ed43bcdfdd33d0ce02061ccee6e7be76f6fcaf2cb698e3fdab8a24cdd8fa6450022100f8575ada7f0be2f2eaa6db94fd81a1add2d2335d640a78b0a86c02056d3aaf34014104cdcb6e85dd4e2cd387eb0ea60944c6ae7008c17dcc55a3aebe435ed773e079eac19bf033f128ad75ed177ad69af55eefc5785b8fcc51b927200f8167c49287fb", "asm": "3046022100ed43bcdfdd33d0ce02061ccee6e7be76f6fcaf2cb698e3fdab8a24cdd8fa6450022100f8575ada7f0be2f2eaa6db94fd81a1add2d2335d640a78b0a86c02056d3aaf34[ALL] 04cdcb6e85dd4e2cd387eb0ea60944c6ae7008c17dcc55a3aebe435ed773e079eac19bf033f128ad75ed177ad69af55eefc5785b8fcc51b927200f8167c49287fb"}, "addr": "1A4qKPjDBfrqGkwDCSVvZxTUhEEGwq2Pmr", "valueSat": 1534393456, "value": 15.34393456, "doubleSpentTxID": null}, {"txid": "c47c0f37a383c8751cf06fa60e4523c279135f221bec4944e0d0b4813bf3ed17", "vout": 1, "sequence": 4294967295, "n": 2, "scriptSig": {"hex": "47304402204acd1f2f99a6b1ce7b317cca270aaf0729a0c29a9a24e9e7ffd143eacc05a76002204f8b01ac92ae1b0291a86957317f0fcfc9330c449c95f52403523b0ceaa257fa0141042fadd4bf86e3e9df938721248f3794a072129bc394d07fcc2895a8a30fc92bc13fac6f727567b86a16eed2f011f23a9c92d227b0f73fb5a242efab9b9adecb53", "asm": "304402204acd1f2f99a6b1ce7b317cca270aaf0729a0c29a9a24e9e7ffd143eacc05a76002204f8b01ac92ae1b0291a86957317f0fcfc9330c449c95f52403523b0ceaa257fa[ALL] 042fadd4bf86e3e9df938721248f3794a072129bc394d07fcc2895a8a30fc92bc13fac6f727567b86a16eed2f011f23a9c92d227b0f73fb5a242efab9b9adecb53"}, "addr": "1HHkf2bYxmoU9NgfWAEWKPn8KwcYXnWW1Y", "valueSat": 4624264929, "value": 46.24264929, "doubleSpentTxID": null}], "vout": [{"value": "34.02073148", "n": 0, "scriptPubKey": {"hex": "76a91426570521ad39052c55e32801e9f59660f93697a988ac", "asm": "OP_DUP OP_HASH160 26570521ad39052c55e32801e9f59660f93697a9 OP_EQUALVERIFY OP_CHECKSIG", "addresses": ["14VivYoSgNVhBcXEDo6nivxAGJiNE48PxS"], "type": "pubkeyhash"}, "spentTxId": "54066f79dfbebae5fb14ee7485bec1182932473eea9f7efa7d02b50943accc03", "spentIndex": 1, "spentHeight": 190786}, {"value": "34.01803022", "n": 1, "scriptPubKey": {"hex": "76a9141770d69de90938dec7ef6350b6ddba5397b4659188ac", "asm": "OP_DUP OP_HASH160 1770d69de90938dec7ef6350b6ddba5397b46591 OP_EQUALVERIFY OP_CHECKSIG", "addresses": ["138wiZMmWmyubUcuYU2PWDWCzFs3ZNZMAx"], "type": "pubkeyhash"}, "spentTxId": "7df8493012d82b216756d9f439269afd38b61e1678cb338c83bb8941ce728ec4", "spentIndex": 1, "spentHeight": 190802}], "blockhash": "000000000000070293a15c3e70f859fbb1a7a1b1a267f9754f34dcbd793471d8", "blockheight": 190786, "confirmations": 379262, "time": 1343269961, "blocktime": 1343269961, "valueOut": 68.0387617, "size": 619, "valueIn": 68.0387617, "fees": 0, "rawtx": "010000000340a19ea126dd246cc780e29004f1fb30a45ce129a66684779fd36d2373b8eef1010000008c493046022100b849a5f71715a1a271ed1fa0075e093db759b52271642b5e5b53cd212a9387a7022100b3d12e6bea254f99418b75c2779e7ea30c29e154f328495faecabfa920d0c35c0141046e54084a17b7f2aa2bb8c9c90f30ab550f6ca4fe485b6d4d8e700777d617efd3c15817751654fb428b5ff6782bf6ac44a323341d796e4d3df26af31b4461fe95ffffffff2edaa56b1aa8a7a58c6d0779d9de4e7a12dabbaa6df9e6c0d11237ef4836db63010000008c493046022100ed43bcdfdd33d0ce02061ccee6e7be76f6fcaf2cb698e3fdab8a24cdd8fa6450022100f8575ada7f0be2f2eaa6db94fd81a1add2d2335d640a78b0a86c02056d3aaf34014104cdcb6e85dd4e2cd387eb0ea60944c6ae7008c17dcc55a3aebe435ed773e079eac19bf033f128ad75ed177ad69af55eefc5785b8fcc51b927200f8167c49287fbffffffff17edf33b81b4d0e04449ec1b225f1379c223450ea66ff01c75c883a3370f7cc4010000008a47304402204acd1f2f99a6b1ce7b317cca270aaf0729a0c29a9a24e9e7ffd143eacc05a76002204f8b01ac92ae1b0291a86957317f0fcfc9330c449c95f52403523b0ceaa257fa0141042fadd4bf86e3e9df938721248f3794a072129bc394d07fcc2895a8a30fc92bc13fac6f727567b86a16eed2f011f23a9c92d227b0f73fb5a242efab9b9adecb53ffffffff023c84c7ca000000001976a91426570521ad39052c55e32801e9f59660f93697a988ac0e65c3ca000000001976a9141770d69de90938dec7ef6350b6ddba5397b4659188ac00000000"}