{"txid": "287868b8c0069563512881d6419d861a5fc0a3b09781f88e500ffb4e59d5767c", "version": 1, "locktime": 0, "vin": [{"coinbase": "0429fa021b0114", "sequence": 4294967295, "n": 0}], "vout": [{"value": "50.00000000", "n": 0, "scriptPubKey": {"hex": "410439f5b9f8a32893c579ae9612425834d74c5f91c1f879705dad54fa03e5fd4fba83bff82f14953f48a07a261e68f1526ed0b4b3215443c4930ac9b35e9e844dd3ac", "asm": "0439f5b9f8a32893c579ae9612425834d74c5f91c1f879705dad54fa03e5fd4fba83bff82f14953f48a07a261e68f1526ed0b4b3215443c4930ac9b35e9e844dd3 OP_CHECKSIG", "addresses": ["1DUn1btemkMb8y6Eiw71jZZPRPvc2792nF"], "type": "pubkeyhash"}, "spentTxId": null, "spentIndex": null, "spentHeight": null}], "blockhash": "000000000001a59befe978a0477db557ce1501d94ba9aea9e873b6d11f593f9c", "blockheight": 105876, "confirmations": 464131, "time": 1296681583, "blocktime": 1296681583, "isCoinBase": true, "valueOut": 50, "size": 134, "rawtx": "01000000010000000000000000000000000000000000000000000000000000000000000000ffffffff070429fa021b0114ffffffff0100f2052a0100000043410439f5b9f8a32893c579ae9612425834d74c5f91c1f879705dad54fa03e5fd4fba83bff82f14953f48a07a261e68f1526ed0b4b3215443c4930ac9b35e9e844dd3ac00000000"}