{"txid": "c8fd6fc33ce6d7ae1082674097aba4fb91d182f1cac89c7dd78e4759d164e336", "version": 1, "locktime": 0, "vin": [{"txid": "107549435264cbfbbbe136db3846e5805fbec758734a16d1a7c1b91af4ec7402", "vout": 1, "sequence": 4294967295, "n": 0, "scriptSig": {"hex": "483045022057cb1abfdfbfe955c4ad557bc4b3e023ae777e14282eb9385374c9c9a1fcf9a0022100d848ae0834f8cd51687b059fd38ce01f2c0c0679d6a55cb6ecf9f710e083b45c014104606bf18bd8b5994b1e37ce13e7eed33e8508234a40d8795cfa6fe1f875c7e7eea13d31dc6fc77d2cc02880a9848d1573005d246a7a215b6b1ef48f7296a9d0b3", "asm": "3045022057cb1abfdfbfe955c4ad557bc4b3e023ae777e14282eb9385374c9c9a1fcf9a0022100d848ae0834f8cd51687b059fd38ce01f2c0c0679d6a55cb6ecf9f710e083b45c[ALL] 04606bf18bd8b5994b1e37ce13e7eed33e8508234a40d8795cfa6fe1f875c7e7eea13d31dc6fc77d2cc02880a9848d1573005d246a7a215b6b1ef48f7296a9d0b3"}, "addr": "1dice97ECuByXAvqXpaYzSaQuPVvrtmz6", "valueSat": 2000000, "value": 0.02, "doubleSpentTxID": null}], "vout": [{"value": "0.00000001", "n": 0, "scriptPubKey": {"hex": "76a91482514350fdb93adf779c57815510effd5ab20f7788ac", "asm": "OP_DUP OP_HASH160 82514350fdb93adf779c57815510effd5ab20f77 OP_EQUALVERIFY OP_CHECKSIG", "addresses": ["1Ct4CBr9cGPVtWLhNtjpwxCKjxeTP7b4bk"], "type": "pubkeyhash"}, "spentTxId": null, "spentIndex": null, "spentHeight": null}, {"value": "0.01899999", "n": 1, "scriptPubKey": {"hex": "76a914e04d22e13420d48e8ea69ac8b7abfb229b9d6bf188ac", "asm": "OP_DUP OP_HASH160 e04d22e13420d48e8ea69ac8b7abfb229b9d6bf1 OP_EQUALVERIFY OP_CHECKSIG", "addresses": ["1MSzmVTBaaSpKDARK3VGvP8v7aCtwZ9zbw"], "type": "pubkeyhash"}, "spentTxId": "ed4ea9aed278293410684baa8709e645ac7ba7070bb7bfe96be85ebd60f5bb16", "spentIndex": 0, "spentHeight": 214373}], "blockhash": "0000000000000471c6f4f6ec44d6727b9bd7256270f95d8b493030ec34a69d67", "blockheight": 214372, "confirmations": 355635, "time": 1356897493, "blocktime": 1356897493, "valueOut": 0.019, "size": 258, "valueIn": 0.02, "fees": 0.001, "rawtx": "01000000010274ecf41ab9c1a7d1164a7358c7be5f80e54638db36e1bbfbcb645243497510010000008b483045022057cb1abfdfbfe955c4ad557bc4b3e023ae777e14282eb9385374c9c9a1fcf9a0022100d848ae0834f8cd51687b059fd38ce01f2c0c0679d6a55cb6ecf9f710e083b45c014104606bf18bd8b5994b1e37ce13e7eed33e8508234a40d8795cfa6fe1f875c7e7eea13d31dc6fc77d2cc02880a9848d1573005d246a7a215b6b1ef48f7296a9d0b3ffffffff0201000000000000001976a91482514350fdb93adf779c57815510effd5ab20f7788acdffd1c00000000001976a914e04d22e13420d48e8ea69ac8b7abfb229b9d6bf188ac00000000"}